{
  "contractName": "Test",
  "abi": [
    {
      "constant": false,
      "inputs": [
        {
          "name": "_points",
          "type": "uint256"
        }
      ],
      "name": "addPoints",
      "outputs": [],
      "payable": false,
      "stateMutability": "nonpayable",
      "type": "function"
    },
    {
      "constant": true,
      "inputs": [],
      "name": "getPoints",
      "outputs": [
        {
          "name": "",
          "type": "uint256"
        }
      ],
      "payable": false,
      "stateMutability": "view",
      "type": "function"
    }
  ],
  "bytecode": "0x60806040526000805534801561001457600080fd5b5060e7806100236000396000f3006080604052600436106049576000357c0100000000000000000000000000000000000000000000000000000000900463ffffffff16806312fb1cbd14604e578063f4b7095b146078575b600080fd5b348015605957600080fd5b5060766004803603810190808035906020019092919050505060a0565b005b348015608357600080fd5b50608a60b2565b6040518082815260200191505060405180910390f35b80600080828254019250508190555050565b600080549050905600a165627a7a72305820ba7de300aefa66bd0e488e308f0622eb77ead76e72408ccca95d2c8d893d52370029",
  "source": "pragma solidity ^0.4.24;\r\n\r\ncontract Test {\r\n//string greet = \"Hello everyone\";\r\n    uint points =  0;\r\n    \r\n    function addPoints(uint _points){\r\n        points += _points;\r\n        \r\n    }\r\n    \r\n      function getPoints() constant returns(uint){\r\n        return points;\r\n        \r\n    }\r\n    \r\n}",
  "sourcePath": "C:\\Users\\Ariessa Ko\\Desktop\\blocks\\contracts\\Test.sol",
  "compiler": {
    "name": "solc",
    "version": "0.4.24+commit.e67f0147.Emscripten.clang"
  },
  "schemaVersion": "2.0.1",
  "updatedAt": "2018-09-24T04:57:10.773Z"
}